{
  "address": "0xe95d6C8940c29da1bE5e2fc8477466cC7756B52E",
  "abi": [
    {
      "inputs": [
        {
          "internalType": "address",
          "name": "exampleExternalContractAddress",
          "type": "address"
        }
      ],
      "stateMutability": "nonpayable",
      "type": "constructor"
    },
    {
      "anonymous": false,
      "inputs": [
        {
          "indexed": false,
          "internalType": "address",
          "name": "",
          "type": "address"
        },
        {
          "indexed": false,
          "internalType": "uint256",
          "name": "",
          "type": "uint256"
        }
      ],
      "name": "Stake",
      "type": "event"
    },
    {
      "inputs": [
        {
          "internalType": "address",
          "name": "",
          "type": "address"
        }
      ],
      "name": "balances",
      "outputs": [
        {
          "internalType": "uint256",
          "name": "",
          "type": "uint256"
        }
      ],
      "stateMutability": "view",
      "type": "function"
    },
    {
      "inputs": [],
      "name": "deadline",
      "outputs": [
        {
          "internalType": "uint256",
          "name": "",
          "type": "uint256"
        }
      ],
      "stateMutability": "view",
      "type": "function"
    },
    {
      "inputs": [],
      "name": "exampleExternalContract",
      "outputs": [
        {
          "internalType": "contract ExampleExternalContract",
          "name": "",
          "type": "address"
        }
      ],
      "stateMutability": "view",
      "type": "function"
    },
    {
      "inputs": [],
      "name": "execute",
      "outputs": [],
      "stateMutability": "nonpayable",
      "type": "function"
    },
    {
      "inputs": [],
      "name": "executed",
      "outputs": [
        {
          "internalType": "bool",
          "name": "",
          "type": "bool"
        }
      ],
      "stateMutability": "view",
      "type": "function"
    },
    {
      "inputs": [],
      "name": "openForWithdraw",
      "outputs": [
        {
          "internalType": "bool",
          "name": "",
          "type": "bool"
        }
      ],
      "stateMutability": "view",
      "type": "function"
    },
    {
      "inputs": [],
      "name": "stake",
      "outputs": [],
      "stateMutability": "payable",
      "type": "function"
    },
    {
      "inputs": [],
      "name": "threshold",
      "outputs": [
        {
          "internalType": "uint256",
          "name": "",
          "type": "uint256"
        }
      ],
      "stateMutability": "view",
      "type": "function"
    },
    {
      "inputs": [],
      "name": "timeLeft",
      "outputs": [
        {
          "internalType": "uint256",
          "name": "",
          "type": "uint256"
        }
      ],
      "stateMutability": "view",
      "type": "function"
    },
    {
      "inputs": [],
      "name": "withdraw",
      "outputs": [],
      "stateMutability": "nonpayable",
      "type": "function"
    },
    {
      "stateMutability": "payable",
      "type": "receive"
    }
  ],
  "transactionHash": "0x1442f0b25e55e50ab976a83c1863a4475057dfcec67f2c728a972adee799a454",
  "args": [
    "0x47BCb42cfc2d008F0edef3e474cD584dF638c639"
  ],
  "solcInputHash": "e8cd8ee47424e5864a81a07be885e664",
  "bytecode": "0x608060405234801561001057600080fd5b506040516106a03803806106a083398101604081905261002f91610060565b600080546001600160a01b0319166001600160a01b038316179055610057426203f48061008e565b600255506100b2565b600060208284031215610071578081fd5b81516001600160a01b0381168114610087578182fd5b9392505050565b600082198211156100ad57634e487b7160e01b81526011600452602481fd5b500190565b6105df806100c16000396000f3fe6080604052600436106100955760003560e01c80633ccfd60b116100595780633ccfd60b1461014b57806342cde4e814610160578063614619541461017c5780639876a643146101915780639f75f227146101ab57600080fd5b80631300a6d1146100a957806327e235e3146100d157806329dcb0cf146100fe57806331a38c89146101145780633a4b66f11461014357600080fd5b366100a4576100a26101e3565b005b600080fd5b3480156100b557600080fd5b506100be6102c7565b6040519081526020015b60405180910390f35b3480156100dd57600080fd5b506100be6100ec366004610536565b60016020526000908152604090205481565b34801561010a57600080fd5b506100be60025481565b34801561012057600080fd5b5060035461013390610100900460ff1681565b60405190151581526020016100c8565b6100a26101e3565b34801561015757600080fd5b506100a26102eb565b34801561016c57600080fd5b506100be670de0b6b3a764000081565b34801561018857600080fd5b506100a261041f565b34801561019d57600080fd5b506003546101339060ff1681565b3480156101b757600080fd5b506000546101cb906001600160a01b031681565b6040516001600160a01b0390911681526020016100c8565b60025442106102235760405162461bcd60e51b8152602060048201526007602482015266139bdd0816595d60ca1b60448201526064015b60405180910390fd5b600354610100900460ff16156102695760405162461bcd60e51b815260206004820152600b60248201526a416c72656164792045786560a81b604482015260640161021a565b3360009081526001602052604081208054349290610288908490610564565b9091555050604080513381523460208201527febedb8b3c678666e7f36970bc8f57abf6d8fa2e828c0da91ea5b75bf68ed101a910160405180910390a1565b600060025442106102d85750600090565b426002546102e6919061057c565b905090565b60035460ff166103325760405162461bcd60e51b81526020600482015260126024820152714e6f7420526561647920576974686472617760701b604482015260640161021a565b3360009081526001602052604090205461037b5760405162461bcd60e51b815260206004820152600a6024820152694e6f2042616c616e636560b01b604482015260640161021a565b33600081815260016020526040808220805490839055905190929083908381818185875af1925050503d80600081146103d0576040519150601f19603f3d011682016040523d82523d6000602084013e6103d5565b606091505b505090508061041b5760405162461bcd60e51b81526020600482015260126024820152710ccc2d2d8cac840e8de40e6cadcc8408ae8d60731b604482015260640161021a565b5050565b600254421161045a5760405162461bcd60e51b8152602060048201526007602482015266139bdd0816595d60ca1b604482015260640161021a565b600354610100900460ff16156104a05760405162461bcd60e51b815260206004820152600b60248201526a416c72656164792045786560a81b604482015260640161021a565b6003805461ff001916610100179055670de0b6b3a764000047106105275760008054906101000a90046001600160a01b03166001600160a01b031663522e1177476040518263ffffffff1660e01b81526004016000604051808303818588803b15801561050c57600080fd5b505af1158015610520573d6000803e3d6000fd5b5050505050565b6003805460ff19166001179055565b600060208284031215610547578081fd5b81356001600160a01b038116811461055d578182fd5b9392505050565b6000821982111561057757610577610593565b500190565b60008282101561058e5761058e610593565b500390565b634e487b7160e01b600052601160045260246000fdfea26469706673582212206ab18a1359cf2964e6d795e82e5143e08be56e8611d5fac16bd0ee62213447b264736f6c63430008040033",
  "devdoc": {
    "kind": "dev",
    "methods": {},
    "version": 1
  },
  "userdoc": {
    "kind": "user",
    "methods": {},
    "version": 1
  },
  "storageLayout": {
    "storage": [
      {
        "astId": 19,
        "contract": "contracts/Staker.sol:Staker",
        "label": "exampleExternalContract",
        "offset": 0,
        "slot": "0",
        "type": "t_contract(ExampleExternalContract)12"
      },
      {
        "astId": 48,
        "contract": "contracts/Staker.sol:Staker",
        "label": "balances",
        "offset": 0,
        "slot": "1",
        "type": "t_mapping(t_address,t_uint256)"
      },
      {
        "astId": 86,
        "contract": "contracts/Staker.sol:Staker",
        "label": "deadline",
        "offset": 0,
        "slot": "2",
        "type": "t_uint256"
      },
      {
        "astId": 88,
        "contract": "contracts/Staker.sol:Staker",
        "label": "openForWithdraw",
        "offset": 0,
        "slot": "3",
        "type": "t_bool"
      },
      {
        "astId": 90,
        "contract": "contracts/Staker.sol:Staker",
        "label": "executed",
        "offset": 1,
        "slot": "3",
        "type": "t_bool"
      }
    ],
    "types": {
      "t_address": {
        "encoding": "inplace",
        "label": "address",
        "numberOfBytes": "20"
      },
      "t_bool": {
        "encoding": "inplace",
        "label": "bool",
        "numberOfBytes": "1"
      },
      "t_contract(ExampleExternalContract)12": {
        "encoding": "inplace",
        "label": "contract ExampleExternalContract",
        "numberOfBytes": "20"
      },
      "t_mapping(t_address,t_uint256)": {
        "encoding": "mapping",
        "key": "t_address",
        "label": "mapping(address => uint256)",
        "numberOfBytes": "32",
        "value": "t_uint256"
      },
      "t_uint256": {
        "encoding": "inplace",
        "label": "uint256",
        "numberOfBytes": "32"
      }
    }
  }
}